:060000000C9495000C9425
:10000600C2000C94D0000C9400000C9400000C94D8
:1000160000000C9400000C9400000C9400000C945A
:1000260000000C9400000C9400000C9400000C944A
:1000360000000C9400000C9400000C9400000C943A
:1000460000000C9400000C9400000C9400000000CA
:1000560000000000313233343F065B4F666D7D078A
:100066007F67456E746572207061737377726F6413
:100076003A2000494E434F52524543542050415373
:1000860053574F524400436F727265637420506138
:100096007373776F72640031294C4544203C3D0AE6
:1000A600322942757A7A65720031294C45440A3202
:1000B6002942757A7A6572203C3D00332952656C77
:1000C6006179203C3D0080C0060004005400040015
:1000D60019025A000A001D025E0011006001680044
:1000E6001300710179001100840168001100950167
:1000F6008C001200A6019D001200B801AF000B0093
:10010600CA01C1001100D50168001100E6016800AE
:100116001100F701680011000802680002002702BA
:10012600CC000000F894EE27ECBBF1E0FBBFEBBF80
:10013600E5BF8DE0A2E0BB27ED938A95E9F780E065
:1001460094E0A0E6ED930197E9F7EEECF0E08591F7
:100156009591009761F0A591B59105901590BF0115
:10016600F00105900D920197E1F7FB01F0CFEFE565
:10017600EDBFE4E0EEBFC0E6D1E00C94F200EA93F6
:10018600EFB7EA93772029F09394E3E6E91508F4AC
:100196009924E991EFBFE99118950A921A92FA9279
:1001A6006A937A938A939A93AA93BA93EA93FA9361
:1001B600EFB7EA93772029F09A94A4E6B0E00E947C
:1001C600D902E991EFBFF991E991B991A991999174
:1001D600899179916991F990199009901895EFE0B4
:1001E600E4BBE0EFE5BBEEE0E1BBE3E0E2BBEFEF53
:1001F600EABBBB9AEBB7E06CEBBFE6E0E5BFE0E03D
:10020600E4BFE0ECEABF7894A0E181D1A0E6B1E0DA
:100216006DD1C8D0E03041F44AD1A1E7B1E0A2D116
:10022600A4E8B1E063D1F5CF42D1A5E9B1E09AD116
:10023600E1E07E2E5E2E4E2E882079F4A92DB0E0C8
:10024600EAE0F0E00E94FA02E35EFD4FE081EBBBDC
:10025600DF98C39AE1E08E2E10C0E1E0E81569F45C
:10026600A92DBB27EAE0F0E00E94FF02E35EFD4F06
:10027600E081EBBBDF9AC3988824E42DF0E0E130FF
:10028600A0E0FA0721F413D1A6EAB1E00FC0E230EC
:10029600A0E0FA0721F40BD1A8EBB1E007C0E330E8
:1002A600A0E0FA0721F403D1AAECB1E01FD18099AE
:1002B60006C04394E3E0E41510F4E1E04E2E819984
:1002C6001AC0E42DF0E0E130A0E0FA0719F450D1AD
:1002D600B5D00DC0E230A0E0FA0719F449D1B2D08A
:1002E60006C0E330A0E0FA0711F442D1AFD0A4E68D
:1002F600B0E00E94D902AAEFB0E00E94D9029CCFDA
:10030600FFCFA898A99AAA9AAB9A9C9902C0E1E352
:1003160008959D9902C0E2E308959E9902C0E3E321
:1003260008959F9902C0E1E40895A89AA998AA9A07
:10033600AB9A9C9902C0E4E308959D9902C0E5E357
:1003460008959E9902C0E6E308959F9902C0E2E4EB
:100356000895A89AA99AAA98AB9A9C9902C0E7E32D
:1003660008959D9902C0E8E308959E9902C0E9E3C5
:1003760008959F9902C0E3E40895A89AA99AAA9AB3
:10038600AB989C9902C0EAE208959D9902C0E0E309
:1003960008959E9902C0E3E208959F9902C0E4E49D
:1003A6000895AFCF24971A93E7D01983E9D031F493
:1003B6007ED0A5EDB1E09AD0E0E03DC0DDD0FE01F3
:1003C60032961083DDD031F472D0A6EEB1E08ED035
:1003D600E0E031C0D1D0FE0133961083D1D031F4A4
:1003E60066D0A7EFB1E082D0E0E025C0C5D0FE011F
:1003F60034961083C5D031F45AD0A8E0B2E076D056
:10040600E0E019C06624E3E0E615A0F0E62DF0E092
:10041600DE011196AE0FBF1FAC91E62DF0E0E75E50
:10042600FD4FE081EA1711F411E002C010E002C0AE
:100436006394E9CFE12F188125960895949AA6D062
:1004460094980895959AA2D095980895969A9ED0D4
:1004560096980895AA93E8B3EF70AE2FE881E07FEF
:10046600EA2BE8BB8DE08A95F1F7C29A8DE08A9572
:10047600F1F7C2988DE08A95F1F772C0AA93A88128
:10048600E9DFE881E295E883A881E4DF85E88A95DB
:10049600F1F766C0AA93E881F0E0E95DFD4FE081DF
:1004A600A981AE0FEBDFB980A88022960895A2E05D
:1004B60071D0ACE0E3DFA1E06DD0E0E0AE2EBE2E61
:1004C6000895AA93A881AA3011F0BD1448F0E0E07F
:1004D600EA93A394AA2DDEDFA881AA3009F440C0CE
:1004E600B394C09AA881CADFC0983AC0BA93AA93B7
:1004F6001A93A981BA81ED91A983BA831E2FE030A0
:1005060019F0A12FDEDFF5CF188123960895AA935F
:10051600E7B3E06FE7BBBA9AB89AB99AC298C0989F
:10052600C198D880E881E058E0932902E881E05438
:10053600E0932A02A4E1B0E00E94D90230D02FD085
:100546002ED0A0E287DF88EC90E00197F1F7A8E2D1
:1005560095DFA4E093DFA5E891DFA6E08FDFA7DFB4
:1005660021960895C3DFACE2B1E00E94D9029FCF85
:100576009EDFE1E04E2E0895C4DE1E2FA12FA1CFEF
:10058600A0E9B1E00E94D9021A320895A8EEB3E0BC
:100596000C94D90273DFA3E0B0E00C94D902A0E377
:1005A60059DF88EC90E00197F1F70895109639F03D
:1005B60080ED97E00197F1F7A8951197C9F708958F
:1005C600F195E195F04008950024112490E1AA0FD9
:1005D600BB1F001C111C0E1A1F0A18F40E0E1F1E3C
:1005E60001C0A1609A9599F7FD01D001089512D036
:1005F600EBDF0EF4E5DF0895E894B7FF04C0A0959D
:10060600B09511966894F7FDDBDFDEDFFD010EF491
:10061600D7DF0895E894F7FF02C0D2DF6894B7FFEA
:1006260006C0A095B095119600F8039400FA0895B7
:00000001FF
