:080000000C942A000C9400008E
:100008000C9400000C9400000C9400000C94000068
:100018000C9400000C9400000C9400000C94000058
:100028000C9400000C9400000C9400000C94000048
:100038000C9400000C9400000C9400000C94000038
:100048000C9400000C9400000C940000F894EE2727
:10005800ECBBF1E0FBBFEBBFE5BFF8E1F1BDE1BDF3
:100068008DE0A2E0BB27ED938A95E9F780E098E060
:10007800A0E6ED930197E9F7EFE5EDBFE8E0EEBF05
:10008800C0E6D2E00C9448002497E1E0E883E0E081
:10009800E983E1E0EA83E0E0EB8300E010E021E0BF
:1000A80030E041E050E0EFEFEABBE0E0EBBBEFEF20
:1000B800E7BBE0E0E8BBEFEFE4BBE0E0E5BBEFEF78
:1000C800E1BBE0E0E2BB0F5F1F4FD801E6E0F0E0E4
:1000D8000E94F600309769F4A2E0A29FF001A39F66
:1000E800F00D9F012030E1E03E0710F021E030E004
:1000F8002BBBD801E1E1F0E00E94F600309769F4EB
:10010800A2E0A49FF001A59FF00DAF014030E1E00F
:100118005E0710F041E050E048BBD801EDE1F0E0A7
:100128000E94F600309799F4AA81BB81E2E00E9410
:10013800DD00EA83FB83AA81BB81A030E1E0BE0732
:1001480020F0E1E0F0E0EA83FB83EA81E5BBD80137
:10015800EBE2F0E00E94F600309799F4A881B981AB
:10016800E2E00E94DD00E883F983A881B981A0302C
:10017800E1E0BE0720F0E1E0F0E0E883F983E88100
:10018800E2BBEAE0F0E0FA93EA930E94CD009BCF4D
:10019800FFCFE991F991309639F080ED97E001971A
:1001A800F1F7A8953197C9F70895F195E195F040D1
:1001B80008956E2F6A9FF0016B9FF00D089500243B
:1001C800112490E1AA0FBB1F001C111C0E1A1F0A54
:1001D80018F40E0E1F1E01C0A1609A9599F7FD0133
:1001E800D0010895E894B7FF04C0A095B095119682
:1001F8006894F7FDDADFE3DFFD010EF4D6DF08953A
:00000001FF
