:080000000C9433000C94000085
:100008000C9400000C9400000C9400000C94000068
:100018000C9400000C9400000C9400000C94000058
:100028000C9400000C9400000C9400000C94000048
:100038000C9400000C9400000C9400000C94000038
:100048000C9400000C9400000C94000001000100C6
:100058000100010000000A00040054000000F894A8
:10006800EE27ECBBF1E0FBBFEBBFE5BFF8E1F1BD6C
:10007800E1BD8DE0A2E0BB27ED938A95E9F780E02A
:1000880098E0A0E6ED930197E9F7EEE5F0E08591B9
:100098009591009761F0A591B59105901590BF01D4
:1000A800F00105900D920197E1F7FB01F0CFEFE524
:1000B800EDBFE8E0EEBFC0E6D2E00C946300EFEFDE
:1000C800EABBE0E0EBBBEFEFE7BBE0E0E8BBEFEF5C
:1000D800E4BBE0E0E5BBEFEFE1BBE0E0E2BBF6014B
:1000E80031966F01D601E6E0F0E00E94E600309715
:1000F80059F4E0E0F1E0E415F50519F4E1E0F0E089
:100108002F014BBA440C551CD601E1E1F0E00E94E6
:10011800E600309759F4E0E0F1E0E615F70519F448
:10012800E1E0F0E03F0168BA660C771C21D059F491
:10013800E0E0F1E0E815F90519F4E1E0F0E04F013D
:1001480065BA880C991C14D059F4E0E0F1E0EA157E
:10015800FB0519F4E1E0F0E05F01A2BAAA0CBB1CB0
:10016800EAE0F0E0FA93EA930E94C300B8CFFFCF29
:10017800D601EDE1F0E00E94E60030970895E9919C
:10018800F991309639F080ED97E00197F1F7A8954D
:100198003197C9F70895F195E195F0400895002445
:1001A800112490E1AA0FBB1F001C111C0E1A1F0A74
:1001B80018F40E0E1F1E01C0A1609A9599F7FD0153
:1001C800D0010895E894B7FF04C0A095B0951196A2
:1001D8006894F7FDE0DFE3DFFD010EF4DCDF08954E
:00000001FF
