:060000000C9488000C9432
:10000600B5000C94C0000C9400000C9400000C94F5
:1000160000000C9400000C9400000C9400000C945A
:1000260000000C9400000C9400000C9400000C944A
:1000360000000C9400000C9400000C9400000C943A
:1000460000000C9400000C9400000C940000313267
:1000560033343F065B4F666D7D077F670000040003
:100066000000000000000000456E7465722070619B
:10007600737377726F643A2000494E434F5252456C
:1000860043542050415353574F524400436F7272AA
:100096006563742050617373776F72640031294C05
:1000A60045443C3D0A322942757A7A657200312907
:1000B6004C45440A322942757A7A65723C3D0033D2
:1000C6002952656C61793C3D000080C00100020048
:1000D60062000A0004006400110060016E00130053
:1000E60071017F0011008401920011009501A300A7
:1000F6001100A601B4000A00B701C5001100C10134
:100106006E000200D201D0000000F894EE27ECBB8E
:10011600F1E0FBBFEBBFE5BF8DE0A2E0BB27ED93AF
:100126008A95E9F780E094E0A0E6ED930197E9F778
:10013600E2EDF0E085919591009761F0A591B5917A
:1001460005901590BF01F00105900D920197E1F71A
:10015600FB01F0CFEFE5EDBFE4E0EEBFC0E6D1E096
:100166000C94CE00EA93EFB7EA9321FE10C0639495
:10017600E3E6E61508F466240AC0EA93EFB7EA93C5
:1001860021FE05C06A94E3E6E61508F46624E991C3
:10019600EFBFE9911895EFE0E4BBE0EFE5BBE0E7E0
:1001A600E1BBE3E0E2BBEFEFEABBBB9AEBB7E06C87
:1001B600EBBFEEE0E5BFE0E0E4BFE0ECEABF789439
:1001C600A0E19DD15FD1A0E6B1E088D1EED09E2E10
:1001D600E1E0E91539F0992021F454D1A1E7B1E025
:1001E600BAD1F0CF4FD1A4E8B1E0B5D14BD16894E4
:1001F60021F8E1E05E2E20FC0FC0A62DB0E0EAE07B
:10020600F0E00E94E702E85AFF4F04900BBA6894A8
:1002160020F8DF98C39A10C020FE0EC0A62DBB277B
:10022600EAE0F0E00E94EF02E85AFF4F04900BBAB2
:10023600E89420F8DF9AC3985414D9F0452CE52D9C
:10024600F0E0E130A0E0FA0721F41CD1A5E9B1E025
:100256000FC0E230A0E0FA0721F414D1A6EAB1E01B
:1002660007C0E330A0E0FA0721F40CD1A7EBB1E018
:1002760035D1809902C074D109F006C05394E3E0E9
:10028600E51510F4E1E05E2E819904C069D111F400
:10029600882009F003C0E4E04E2E852C879B02C01F
:1002A6005FD109F005C06394E3E6E61508F4662419
:1002B600882009F1F60131966F01E82DF0E0E13072
:1002C600A0E0FA0711F4949A04C0E230A0E0FA071D
:1002D60011F4959A04C0E330A0E0FA0709F4969A5F
:1002E600E8E2F0E0EC15FD0531F4CC24DD248824A9
:1002F600949895989698F50131965F01A9E1B0E03A
:100306000E94C60278CFFFCFA898A99AAA9AAB9A5C
:100316009C9902C0E1E308959D9902C0E2E3089525
:100326009E9902C0E3E308959F9902C0E1E408950F
:10033600A89AA998AA9AAB9A9C9902C0E4E3089550
:100346009D9902C0E5E308959E9902C0E6E30895EB
:100356009F9902C0E2E40895A89AA99AAA98AB9A2E
:100366009C9902C0E7E308959D9902C0E8E30895C9
:100376009E9902C0E9E308959F9902C0E3E40895B7
:10038600A89AA99AAA9AAB989C9902C0EAE20895FB
:100396009D9902C0E0E308959E9902C0E3E20895A4
:1003A6009F9902C0E4E40895AFCF24971A93772467
:1003B600E3E0E715C8F0A8DF1E2FA12F6FD0E72DC9
:1003C600F0E0DE011196EA0FFB1F1083A4EFB1E007
:1003D6000E94C6021A3231F455D0A1ECB1E07ED0AB
:1003E600E2E01BC07394E4CF7724E3E0E715A0F0C6
:1003F600E72DF0E0DE011196AE0FBF1FAC91E72DA1
:10040600F0E0EC5AFF4FE491EA1711F411E002C054
:1004160010E002C07394E9CFE12F18812596089564
:10042600AA93E8B3EF70AE2FE881E07FEA2BE8BB32
:100436008BE18A95F1F7C29A8BE18A95F1F7C2981A
:100446008BE18A95F1F785C0AA93A881E9DFE88157
:10045600E295E883A881E4DF88EC90E00197F1F764
:1004660078C0AA93E881F0E0EE52FE4FE081A981C0
:10047600AE0FEADFE981E093D601E881E093D70188
:1004860022960895A2E073D0ACE0DEDFA1E06FD043
:10049600E0E0E093D701E093D6010895AA93A881FE
:1004A600AA3031F0E091D801A091D601AE1760F0E4
:1004B600E0E0EA93A091D701AF5FA093D701D1DF27
:1004C600A881AA3009F445C0E091D601EF5FE09318
:1004D600D601C09AA881B8DFC0983BC0BA93AA9348
:1004E6001A93A981BA81ED91A983BA831E2FE030B0
:1004F60019F0A12FD3DFF5CF188123960895AA937B
:10050600E7B3E06FE7BBBA9AB89AB99AC298C098AF
:10051600C198E881E093D801E058E093D401E881DE
:10052600E054E093D501A4E1B0E00E94C60224D0D5
:1005360023D022D0A0E274DF80E991E00197F1F7A1
:10054600A8E282DFA4E080DFA5E87EDFA6E07CDF0C
:1005560099DF21960895C2DFACE2B1E00C94C602A1
:10056600D501EFE0F0E00E94EC02309708956CDFD1
:10057600A3E0B0E00C94C602A0E352DF80E991E06C
:100586000197F1F70895109639F080EA9FE00197F8
:10059600F1F7A8951197C9F70895F195E195F040FF
:1005A60008950024112490E1AA0FBB1F001C111C02
:1005B6000E1A1F0A18F40E0E1F1E01C0A1609A958E
:1005C60099F7FD01D001089515D0EBDF0EF4E5DFB4
:1005D6000895E7DFFD010895E894B7FF04C0A095EC
:1005E600B09511966894F7FDD8DFDBDFFD010EF4B8
:1005F600D4DF0895E894F7FF02C0CFDF6894B7FF11
:1006060006C0A095B095119600F8039400FA0895D7
:00000001FF
